:100000000A128A110C280134FE00030EF0000A08BF
:10001000F1000A168A11982F0A128A110F280A1263
:100020008A1103200A128A11EE000A128A1504208E
:100030000A128A11FA000A128A1505200A128A1178
:10004000FB008313A0308400B5300A168A1167279D
:100050000A128A11ED0183010A128A15B92D831241
:10006000031328088039B2002808AD002D07B80016
:10007000A71F3B283C283D2838143808031941287D
:1000800042285128380A031D462847284F280030A7
:10009000A8000030A7000030A6000030A500A71778
:1000A00059280030A8000030A7000030A60000301A
:1000B000A5002C088039FF007F08B2062C08AD008F
:1000C0002D07B300AB1F6528662867283314330853
:1000D00003196B286C287B28330A031D70287128AC
:1000E00079280030AC000030AB000030AA000030AE
:1000F000A900AB1783280030AC000030AB00003003
:10010000AA000030A90033080319872888288D2801
:100110003808031D8C288D2896280030A800003050
:10012000A7000030A6000030A500732B2508F200C0
:100130002B080A128A1506200A128A1173088312E4
:100140000313BE007208BD003D08AD00AE01AF0153
:10015000B0013008B7002F08B6002E08B5002D08F2
:10016000B4003E08AD00AE01AF01B0013008BC00E4
:100170002F08BB002E08BA002D08B9002608F2008F
:100180002A080A128A1506200A128A117308831295
:100190000313BE007208BD003D08AD00AE01AF0103
:1001A000B0012D08B4072E0803110318013E0319EE
:1001B000DA28B5072F0803110318013E0319E128B7
:1001C000B607300803110318013E0319E828B707E2
:1001D0003E08AD00AE01AF01B0012D08B9072E08F1
:1001E00003110318013E0319F628BA072F0803115B
:1001F0000318013E0319FD28BB073008031103183B
:10020000013E03190429BC072708F20029080A1235
:100210008A1506200A128A11730883120313BE007E
:100220007208BD003D08AD00AE01AF01B0012D0860
:10023000B4072E0803110318013E03192029B5073E
:100240002F0803110318013E03192729B6073008A8
:1002500003110318013E03192E29B7073E08AD000C
:10026000AE01AF01B0012D08B9072E080311031824
:10027000013E03193C29BA072F0803110318013E58
:1002800003194329BB07300803110318013E031962
:100290004A29BC070830AD000310B40DB50DB60DEA
:1002A000B70DAD0B4C292608F20029080A128A1551
:1002B00006200A128A11730883120313BE00720803
:1002C000BD003D08AD003E08AE00AF01B0012D08F5
:1002D000B4072E0803110318013E03197029B5074E
:1002E0002F0803110318013E03197729B6073008B8
:1002F00003110318013E03197E29B7072508F200F0
:100300002A080A128A1506200A128A117308831213
:100310000313BE007208BD003D08AD003E08AE00EC
:10032000AF01B0012D08B4072E0803110318013ED8
:1003300003199B29B5072F0803110318013E031960
:10034000A229B607300803110318013E0319A92991
:10035000B7070830AD000310B40DB50DB60DB70DDD
:10036000AD0BAB292508F20029080A128A150620D0
:100370000A128A11730883120313BE007208BD00AB
:100380003D08AD003E08AE00AF01B0012D08B40736
:100390002E0803110318013E0319CF29B5072F08B2
:1003A00003110318013E0319D629B60730080311BB
:1003B0000318013E0319DD29B7072608F2002B08B0
:1003C0000A128A1506200A128A117308831203136F
:1003D000BE007208BD003D08AD003E08AE00AF0192
:1003E000B0012D08B9072E0803110318013E0319A7
:1003F000FA29BA072F0803110318013E0319012A2D
:10040000BB07300803110318013E0319082ABC0773
:100410002708F2002A080A128A1506200A128A11F1
:10042000730883120313BE007208BD003D08AD00BF
:100430003E08AE00AF01B0012D08B9072E08031128
:100440000318013E0319252ABA072F0803110318C0
:10045000013E03192C2ABB07300803110318013E83
:100460000319332ABC072708F2002B080A128A1541
:1004700006200A128A11730883120313BE00720841
:10048000BD003D08AD003E08AE00AF01B001083030
:100490000310AD0DAE0DAF0DB00DFF3E031D482A8C
:1004A0002D08B9072E0803110318013E0319592A14
:1004B000BA072F0803110318013E0319602ABB076E
:1004C000300803110318013E0319672ABC073408DA
:1004D000AD003508AE003608AF003708B000183060
:1004E0000310B00CAF0CAE0CAD0CFF3E031D702A18
:1004F0002D08B9072E0803110318013E0319812A9C
:10050000BA072F0803110318013E0319882ABB07F5
:10051000300803110318013E03198F2ABC07083065
:10052000AD000310B40DB50DB60DB70DAD0B912A8E
:1005300038083307AD00AE01AE0D2D08823EBD0078
:100540002E080318013EFF3EBE00C32A0130AD0055
:100550000310B90DBA0DBB0DBC0DAD0BA82AB71F0A
:10056000B22AB32AB42A39140130AD000310B40DF5
:10057000B50DB60DB70DAD0BB62AFF30BD0703188C
:10058000BE0AFF30BE07BB1FC62AC72AA62AB30170
:10059000B71FCB2ACC2AE82AFF303405AD00FF3044
:1005A0003505AE00FF303605AF007F303705B000AF
:1005B00030082F042E042D040319DF2AE02AE32A31
:1005C000B301B30AE82A391CE62AE72AE82AE02A16
:1005D00033080319EC2AED2A1E2B0130B90700302D
:1005E00003180130BA07003003180130BB07003090
:1005F00003180130BC073C1CFE2AFF2A1E2B3908B9
:10060000AD003A08AE003B08AF003C08B000013036
:10061000B100300DB00CAF0CAE0CAD0CB10B092B12
:100620003008BC002F08BB002E08BA002D08B90006
:100630000130BD070318BE0A0030BE073E08803AED
:10064000FF0080307F02031D272BFF303D02031C7B
:100650002A2B2B2B362B7F3083120313BC008030C8
:10066000BB000030BA000030B900672B83120313BF
:100670003E08803AFF0080307F02031D412B01308D
:100680003D020318442B452B512B003083120313DA
:10069000BC000030BB000030BA000030B900B2012D
:1006A000672B831203133D08B800FF30B905FF30F4
:1006B000BA057F30BB050030BC05381C602B612BB0
:1006C000622BBB173808AD0003102D0CBC0032089C
:1006D000FF007F08BC043C08A8003B08A7003A08BC
:1006E000A6003908A50008008312031343088039C7
:1006F000D0004308C8004807D200C21F802B812BBE
:10070000822B521452080319862B872B972B520ADF
:10071000031D8B2B8C2B942B0030C3000030C200A8
:100720000030C1000030C000C217C3019F2B003051
:10073000C3000030C2000030C1000030C0004708D4
:100740008039D100510850060319A72BA82BA92BDB
:1007500050174708C8004807D100C61FB02BB12B5F
:10076000B22B511451080319B62BB72BC72B510AC2
:10077000031DBB2BBC2BC42B0030C7000030C600B0
:100780000030C5000030C400C617C701CF2B0030B1
:10079000C7000030C6000030C5000030C400520859
:1007A00051020318D42BD52BFB2B501FD82BD92B40
:1007B000DD2B8030FF007F08D0065208D30051089F
:1007C000D2005308D1004008D3004408C0005308A9
:1007D000C4004108D3004508C1005308C5004208C1
:1007E000D3004608C2005308C6004308D300470898
:1007F000C3005308C700D3015108C800C901490804
:10080000CB0052084802CA00031CCB034B08803AB5
:10081000FF0080307F02031D0F2C1A304A02031C98
:10082000122C132C4A2C8312031343084204410454
:100830004004031D1C2C1E2C01301F2C0030D30043
:100840000030C3000030C2000030C1000030C000E2
:100850005108D200522C531C2E2C2F2C362C53080E
:10086000C8000310480C0138D300382C0310D30CF7
:10087000401C3B2C3C2C3D2CD3170130C800430DB1
:10088000C30CC20CC10CC00CC80B3F2C0130FF00C4
:100890007F08D2078312031351085202031C512C04
:1008A000522C2B2C501B552C562C9F2C5208031DC0
:1008B0005A2C5B2C642C0030C3000030C200003086
:1008C000C1000030C000CB2D4408C007450803110B
:1008D0000318013E03196D2CC107460803110318C4
:1008E000013E0319742CC207470803110318013E87
:1008F00003197B2CC307431C7E2C7F2C532D531CC8
:10090000822C832C8A2C5308C8000310480C013811
:10091000D3008C2C0310D30C401C8F2C902C912CCA
:10092000D3170130C800430DC30CC20CC10CC00C5E
:10093000C80B932C0130FF007F08D207532D4308CA
:10094000803AFF004708803A7F02031DB12C460819
:100950004202031DB12C45084102031DB12C44087D
:1009600040020318B42CB52C0D2DFF30C800FF3009
:10097000C900FF30CA00FF30CB004408CC00450856
:10098000CD004608CE004708CF004008CC02410801
:10099000031C410FCC2CCD2CCD024208031C420F6E
:1009A000D22CD32CCE024308031C430FD82CD92CB5
:1009B000CF024C08C8074D0803184D0FE02CE12C5E
:1009C000C9074E0803184E0FE62CE72CCA074F083C
:1009D00003184F0ACB074B08C3004A08C200490856
:1009E000C1004808C0008030FF007F08D006D3094E
:1009F000D30A5308031DFD2CFE2C1B2D0130C0070C
:100A0000003003180130C107003003180130C2075D
:100A1000003003180130C3071B2D4408C0024508ED
:100A2000031C450FC1024608031C460FC2024708BB
:100A3000031C470FC3024308420441044004031D42
:100A4000222D232D4F2D5308031D272D282D4F2DEB
:100A50000030C3000030C2000030C1000030C000D0
:100A6000CB2D0130C8000310C00DC10DC20DC30D48
:100A7000C80B332DD31F3D2D3E2D3F2D4014531C4D
:100A8000422D432D462D0314D30D482D0310D30DB5
:100A9000520803194C2D4D2D4F2D0130D202C21F8B
:100AA000522D532D312DD101D31F572D582D662D89
:100AB00053087F3903195D2D5E2D612DD101D10AB7
:100AC000662D401C642D652D662D5E2D5108031981
:100AD0006A2D6B2D9F2D0130C007003003180130A7
:100AE000C107003003180130C2070030031801307D
:100AF000C307431C7C2D7D2D9F2D4008C800410855
:100B0000C9004208CA004308CB000130CC004B0D9D
:100B1000CB0CCA0CC90CC80CCC0B872D4B08C300DE
:100B20004A08C2004908C1004808C000520A031917
:100B30009A2D9B2D9F2D0130FF007F08D207520A6E
:100B40000319A32DA42DA92D5208031DA82DA92DED
:100B5000B72D0030C3000030C2000030C1000030AB
:100B6000C0005208031DB52DB62DB72DD001521C63
:100B7000BA2DBB2DBD2DC217C12D7F30FF007F08C0
:100B8000C2055208C8000310480CC300D01FC92D6D
:100B9000CA2DCB2DC3170800831203132D088039EB
:100BA000B7002D08AE002E07BE00AC1FD82DD92DE2
:100BB000DA2D3E143E080319DE2DDF2DEF2D3E0AFF
:100BC000031DE32DE42DEC2D0030AD000030AC0012
:100BD0000030AB000030AA00AC17AD01F72D00309B
:100BE000AD000030AC000030AB000030AA00290896
:100BF0008039FF007F08B7062908AE002E07BF0026
:100C0000A81F032E042E052E3F143F080319092E9A
:100C10000A2E1A2E3F0A031D0E2E0F2E172E0030FD
:100C2000A9000030A8000030A7000030A600A817D7
:100C3000A901222E0030A9000030A8000030A70032
:100C40000030A6002908280427042604031D292EA5
:100C50002A2E432E0030AD000030AC000030AB0037
:100C60000030AA008030AC047F30AD043708FF00AC
:100C70007F08AD042D08A9002C08A8002B08A700A8
:100C80002A08A6009A2F3E08031D472E482E512EF3
:100C90000030A9000030A8000030A7000030A600F6
:100CA0009A2F3E08AE00AF012F08B1003F082E0278
:100CB000B000031CB10330087F3EB80031080318B0
:100CC000013E003EB9002D08B6002C08B5002B08E7
:100CD000B4002A08B3000030AD000030AC00003092
:100CE000AB000030AA000030BD000030BC00003076
:100CF000BB000030BA00BF01C72E3F080319812E88
:100D0000822EA22E0130AE000310B30DB40DB50D2E
:100D1000B60DAE0B842E0130AE000310AA0DAB0D44
:100D2000AC0DAD0DAE0B8D2EBD1F972E982E992EAE
:100D30002A140130AE000310BA0DBB0DBC0DBD0D61
:100D4000AE0B9B2E29083602031DB02E2808350253
:100D5000031DB02E27083402031DB02E26083302CF
:100D6000031CB32EB42EC32E3D172608B30227084A
:100D7000031C270FB4022808031C280FB5022908FA
:100D8000031C290FB6020130FF007F08BF071A308D
:100D90003F02031CCC2ECD2E7D2E360835043404A4
:100DA00033040319D42ED52EF42E3A14F42E013028
:100DB000AE000310AA0DAB0DAC0DAD0DAE0BD92ED0
:100DC000BD1FE32EE42EE52E2A140130AE000310E1
:100DD000BA0DBB0DBC0DBD0DAE0BE72EFF30B80735
:100DE0000318B90AFF30B907AC1FF72EF82ED72E1B
:100DF000BF01BD1FFC2EFD2E192FFF303A05AE009E
:100E0000FF303B05AF00FF303C05B0007F303D05B3
:100E1000B100310830042F042E040319102F112FB4
:100E2000142FBF01BF0A192F2A1C172F182F192F93
:100E3000112F3F0803191D2F1E2F4F2F0130AA0716
:100E4000003003180130AB07003003180130AC0745
:100E5000003003180130AD072D1C2F2F302F4F2FDE
:100E60002A08AE002B08AF002C08B0002D08B100F6
:100E70000130B200310DB10CB00CAF0CAE0CB20BA6
:100E80003A2F3108AD003008AC002F08AB002E0817
:100E9000AA000130B8070318B90A0030B9073908A9
:100EA000803AFF0080307F02031D582FFF30380248
:100EB000031C5B2F5C2F6A2FFF3083120313B800D3
:100EC0000030B9000030AD000030AC000030AB00A5
:100ED0000030AA00831203133908803AFF008030E3
:100EE0007F02031D752F013038020318782F792FE8
:100EF000862F83120313B801B9010030AD00003012
:100F0000AC000030AB000030AA00B701831203131D
:100F10003808BE003E1C8D2F8E2F902FAC17942FBB
:100F20007F30FF007F08AC053E08AE0003102E0C9A
:100F3000AD00362E0800831203132308F5002208A3
:100F4000F4002108F3002008F200240AFF00013019
:100F5000AC000030AD00AF2F0310AC0DAD0DFF0B9A
:100F6000AC2F2C08AE002D08AF000030AF1BFF30B7
:100F7000B000B1007208B2007308B3007408B40086
:100F80007508B5002809B6002909B7002A09B80074
:100F90002B09B900B60A0319B70A0319B80A0319CD
:100FA000B90A3608B2063708B3063808B406390855
:100FB000B5063208AE053308AF053408B00535086C
:100FC000B1052E08F2062F08F3063008F4063108A2
:100FD000F5067508A3007408A2007308A100720842
:100FE000A0000800831203139F149F18F82FF92FF5
:100FF000F52F1E08F300831603131E08F2000800E5
:101008000134003483120313A400A001A101720863
:10101800F400F5017408A2007508A300241C152823
:1010280016281C282208A0070318A10A2308A107CC
:1010380001300310A20DA30DFF3E031D1D28031050
:10104800A40C2408031D29282A2812282108F300A3
:101058002008F200080083120313C200432879080D
:10106800803EC30051287908C03EC3005128790842
:10107800903EC30051287908D03EC3005128420849
:10108800003A03193328013A03193728033A031998
:101098003B28013A03193F285128F60143080A1250
:1010A8008A1547210A128A15080083120313ED01D5
:1010B800F201831203138101692865300102031CC0
:1010C80066286728692800308828051F6C286D283D
:1010D80061288101762865300102031C742875286F
:1010E80076286728051B79287A286F28323001026C
:1010F800ED0D0130FF007F08F20708307202031C73
:10110800862887285D280130080075087404730450
:101118007204031990289128D62883120313A10179
:10112800A10AA3280130A0000310F20DF30DF40D5D
:10113800F50DA00B98280130FF007F08A107F51FC7
:10114800A628A728962875087902031DB5287408CB
:101158007802031DB52873087702031DB5287208A5
:101168007602031CB828B928C7287208F602730843
:10117800031C730FF7027408031C740FF802750838
:10118800031C750FF90201300310F50CF40CF30C75
:10119800F20CFF3E031DC8280130A102031DD5280B
:1011A800D628A7287908F5007808F4007708F3000E
:1011B8007608F2000800003083120313A400003000
:1011C800A3000030A2000030A10075087404730465
:1011D80072040319F028F1283E29A501A50A01295E
:1011E8000130A0000310F20DF30DF40DF50DA00B66
:1011F800F6280130FF007F08A507F51F04290529F7
:10120800F4280130A0000310A10DA20DA30DA40D18
:10121800A00B072975087902031D1C297408780298
:10122800031D1C2973087702031D1C297208760206
:10123800031C1F2920292F297208F6027308031C92
:10124800730FF7027408031C740FF8027508031C67
:10125800750FF902211401300310F50CF40CF30C8E
:10126800F20CFF3E031D30290130A502031D3D2964
:101278003E2905292408F5002308F4002208F30074
:101288002108F2000800F700831203130608770804
:10129800BA0004300310BA0CFF3E031D4E293A0869
:1012A8000F39F8007808BA00BB01BC01BD013D0840
:1012B800A3003C08A2003B08A1003A08A0000030A7
:1012C800A7000030A6000030A5000530A40076086D
:1012D800BE00BF01C001C1014108AB004008AA001F
:1012E8003F08A9003E08A8000A128A119B270A1283
:1012F8008A1583120313200886008714871077083D
:101308000F39F8007808BA00BB01BC01BD013D08DF
:10131800A3003C08A2003B08A1003A08A000003046
:10132800A7000030A6000030A5000530A40076080C
:10133800BE00BF01C001C1014108AB004008AA00BE
:101348003F08A9003E08A8000A128A119B270A1222
:101358008A15831203132008860087148710080053
:101368000310740D750D83120313A1002108031DCA
:10137800BE29BF29C8290030F5000030F40000302C
:10138800F3000030F2002B2A7208F6007308F70009
:101398007408F8007508F9001F300310F90CF80CF0
:1013A800F70CF60CFF3E031DD1297608A000F417B0
:1013B800FF30F205FF30F305FF30F4050030F50586
:1013C8009630A102A11FE929EA29042A2108803AB6
:1013D800973E0318F029F129F229BF29013003109B
:1013E800F50CF40CF30CF20CFF3E031DF32901304D
:1013F800FF007F08A107031D022A032AF2291B2ADE
:1014080020302102031C092A0A2A162ABF29013082
:10141800F6000310F20DF30DF40DF50DF60B0D2A81
:101428000130A1022108031D1A2A1B2A0B2A2008B1
:1014380003191F2A202A2B2AF209F309F409F509AE
:10144800F20A0319F30A0319F40A0319F50A080042
:10145800831603130608D039860087108711831274
:101468000313871186018710823083120313C50086
:10147800DD30C400C40B3E2AC50B3E2A033083125C
:101488000313860087148710073083120313C500DF
:101498007C30C400C40B4E2AC50B4E2A00008312B0
:1014A800031387148710C73083120313C4005C2A00
:1014B800C40B5B2A5F2A8312031387148710C73073
:1014C80083120313C400682AC40B672A6B2A0230EC
:1014D80083120313860087148710203083120313A6
:1014E800C400C40B752A0000F60128300A128A15B8
:1014F80047210A128A15203083120313C400C40B33
:10150800832A00000A168A1186270A128A150630CD
:1015180083120313C5002F30C400C40B912AC50BD6
:10152800912A962AF60106300A128A1547210A12CC
:101538008A15203083120313C400C40BA12A0000AB
:10154800F6010C300A128A1547210A128A15203032
:1015580083120313C400C40BAF2A00000800003034
:10156800720583120313A00000307305A1008030B8
:101578007405A2007F307505A30023082204210406
:101588002004031DC82AC92AD12A0030F5000030DA
:10159800F4000030F3000030F20000307605A000BF
:1015A80000307705A10080307805A2007F307905EA
:1015B800A3002308220421042004031DE42AE52AA9
:1015C800ED2A0030F9000030F8000030F700003054
:1015D800F600F51FF02AF12A152B0030A000003084
:1015E800A1000030A2008030A3007208A002730896
:1015F800031C730F002B012BA1027408031C740F2A
:10160800062B072BA2027508031C750F0C2B0D2B3C
:10161800A3022308F5002208F4002108F30020089B
:10162800F200F91F182B192B3D2B0030A0000030B9
:10163800A1000030A2008030A3007608A00277083D
:10164800031C770F282B292BA1027808031C780F7D
:101658002E2B2F2BA2027908031C790F342B352B44
:10166800A3022308F9002208F8002108F70020083F
:10167800F6008030F5068030F90679087502031DFA
:101688004F2B78087402031D4F2B77087302031D34
:101698004F2B760872020318522B532B552B03102D
:1016A800562B0314080083120313D201D301A62B6F
:1016B8004A30C8005208C80246084807C900490805
:1016C800FF3E84000030F5000030F4000030F300E5
:1016D8000A30F2004508F9004408F8004308F7000A
:1016E8004208F6000A128A1589200A128A15720819
:1016F800303E831380000030F5000030F4000030E5
:10170800F3000A30F200831203134508F900440875
:10171800F8004308F7004208F6000A128A15DF208D
:101728000A128A15750883120313C5007408C400C9
:101738007308C3007208C2000130D2070318D30A25
:101748000030D3074608C800C90149085302031DE1
:10175800AF2B48085202031CB22BB32B5C2BD201CF
:10176800D301D22B47080319BA2BBB2BCB2B52081A
:101778004A3E8400303083130006031DC42BC52B5A
:10178800CB2B52084A3E840020308000CC2BC70166
:101798000130D2070318D30A0030D3074608FF3EAA
:1017A800C800FF3003180030C90049085302031D60
:1017B800DF2B48085202031CE22BE32BB62BD20185
:1017C800D301FA2BF601F60A52084A3E8400831325
:1017D80000080A128A1547210A128A150130831255
:1017E8000313D2070318D30A0030D3074608C800EA
:1017F800C90149085302031D032C48085202031C5F
:10180800062C072CE62B080083120313A0002008DF
:1018180003190F2C102C242CF51F132C142C242CFA
:101828007209A2007309A3007409A4007509A50030
:10183800A20A0319A30A0319A40A0319A50A2C2C3E
:101848007508A5007408A4007308A3007208A20014
:101858007508740473047204031D332C342C3D2C56
:101868000030F5000030F4000030F3000030F200E2
:10187800C12C9630A1004D2C0130FF007F08A10734
:1018880001300310A50CA40CA30CA20CFF3E031DF1
:10189800452CFE302505031D522C532C402C6F2C53
:1018A8000130FF007F08A1070130A20700300318AC
:1018B8000130A307003003180130A40700300318D3
:1018C8000130A50701300310A50CA40CA30CA20C31
:1018D800FF3E031D672CFF302505031D742C752C56
:1018E800542C812C0130A1020130F6000310A20D06
:1018F800A30DA40DA50DF60B7A2CA41B842C852C06
:101908008B2C0230210203188A2C8B2C762C211860
:101918008E2C8F2C972CFF30A205FF30A3057F302B
:10192800A405FF30A5050310A10C2108F600F70156
:10193800F801F90118300310F60DF70DF80DF90D3F
:10194800FF3E031D9F2C7608A2047708A30478089D
:10195800A4047908A50420080319B32CB42CB92CC5
:10196800F51FB72CB82CB92CA5172508F5002408A5
:10197800F4002308F3002208F2000800831203137E
:101988005F08F5005E08F4005D08F3005C08F200EB
:101998000030F9000030F8000030F7000030F600A1
:1019A8000A128A15B3220A128A15031CDC2CDD2CB4
:1019B800E62CF601F60A2B300A128A1547210A127C
:1019C8008A15072DF601F60A2D300A128A154721C5
:1019D8000A128A15831203135F08F5005E08F400E3
:1019E8005D08F3005C08F2000A168A116F270A12D4
:1019F8008A15750883120313DF007408DE00730864
:101A0800DD007208DC00831203135F08F5005E082E
:101A1800F4005D08F3005C08F2000A128A15B4218C
:101A28000A128A15720883120313E3007308E4008C
:101A38000030E41BFF30E500E6006608F5006508A5
:101A4800F4006408F3006308F20000300A128A15F3
:101A580008240A128A15750883120313D70074081C
:101A6800D6007308D5007208D4005F08DB005E0852
:101A7800DA005D08D9005C08D8000A168A11DC274C
:101A88000A128A15831203135708EA005608E90058
:101A98005508E8005408E7006608C5006508C40052
:101AA8006408C3006308C20061086002C600C70179
:101AB800C70A0A128A1557230A128A15F601F60A66
:101AC8002E300A128A1547210A128A158312031327
:101AD800E201E20A922D4130A8002030A700003030
:101AE800A6000030A5006A08AC006908AB006808C9
:101AF800AA006708A9000A128A112F200A128A155B
:101B0800831203132808EA002708E9002608E800DA
:101B18002508E7000130FF007F08E207620861023C
:101B28000318972D982D6F2D6A08F5006908F400A1
:101B38006808F3006708F2000A128A15B4210A122D
:101B48008A15720883120313C2007308C300003099
:101B5800C31BFF30C400C5006108C600C7010A12D4
:101B68008A1557230A128A150800831603130514C9
:101B780085140515831603170810881008110A160E
:101B88008A117A270A128A150A168A11AB270A12AD
:101B98008A150A128A152C220A128A150A168A111F
:101BA800C1270A128A158316031385110512851396
:101BB800831203138513F6308F003B308E001030EC
:101BC80090000130831603138C00C0308B00831201
:101BD80003131014851105126E08031DF42DF52D3D
:101BE800F02D0130EE00013083160313A5070030F5
:101BF80003180130A607003003180130A70700308A
:101C080003180130A8070030F5000030F400003058
:101C1800F3006430F2002808F9002708F8002608C5
:101C2800F7002508F6000A128A1589200A128A1573
:101C38007508740473047204031D232E242E8B2E3E
:101C4800031083120313851D031403182C2E302E42
:101C5800831203138515332E831203138511AD30B8
:101C6800D400B1300A128A15C7260A128A15F9015A
:101C780000300A128A152F200A128A1583160313B8
:101C8800300883120313DF00831603132F0883120F
:101C98000313DE00831603132E0883120313DD00DB
:101CA800831603132D0883120313DC000530E000AC
:101CB8000230E1000A128A15C2240A128A15F901B3
:101CC80001300A128A152F200A128A158316031367
:101CD800340883120313DF008316031333088312B7
:101CE8000313DE0083160313320883120313DD0087
:101CF80083160313310883120313DC000530E00058
:101D08000230E1000A128A15C2240A128A157A03DF
:101D18007B04031D902E912EB72E0A128A11F227EA
:101D28000A128A15730883160313AA007208A900F9
:101D38002A0883120313EC0083160313290883125D
:101D48000313EB006C08EB00EC016B08831603131C
:101D5800AB00831203136C0883160313AC002B0823
:101D6800831203139500831203130519BC2EBD2E8D
:101D7800F02DFA09FB09FA0A0319FB0A9501F02D5F
:101D88000A128A110C2883120313DD000513831627
:101D980003130513183083120313D6005E30D500E1
:101DA800D50BD42ED60BD42E00008316031305179B
:101DB800831203138101E72E65300102031CE52E0F
:101DC800E62EE72EFF2F051BEA2EEB2EE02E8101D3
:101DD800F42E65300102031CF22EF32EF42EFF2F91
:101DE800051FF72EF82EED2E8101012F6530010217
:101DF800031CFF2E002F012FFF2F051B042F052F7B
:101E0800FA2EDE010A128A1559200A128A15003A9A
:101E1800031D0F2F102F112FFF2F831203135E089E
:101E2800A03E84006D08831380000130FF007F0806
:101E3800DE0705305E02031C222F232F062F4130B8
:101E4800A9002030A8000030A7000030A6008316A3
:101E58000313210883120313D500D601D701D80133
:101E68005808F5005708F4005608F3005508F20022
:101E780000300A128A1508240A128A157508831276
:101E88000313AD007408AC007308AB007208AA0015
:101E98000A128A11CC250A128A15831203132908FB
:101EA800C3002808C2002708C1002608C0008316FE
:101EB8000313200883120313D900DA01DB01DC01C4
:101EC8005C08F5005B08F4005A08F3005908F200B2
:101ED80000300A128A1508240A128A157508831216
:101EE8000313C7007408C6007308C5007208C4004D
:101EF8000A128A1174230A128A15831203135D08C1
:101F08008400400883138000840A41088000840A02
:101F180042088000840A430880004130A90020302C
:101F2800A8000030A7000030A6008316031323087A
:101F380083120313D500D601D701D8015808F5003C
:101F48005708F4005608F3005508F20000300A124A
:101F58008A1508240A128A15750883120313AD001E
:101F68007408AC007308AB007208AA000A128A1140
:101F7800CC250A128A15831203132908C3002808DE
:101F8800C2002708C1002608C000831603132208D0
:101F980083120313D900DA01DB01DC015C08F500C8
:101FA8005B08F4005A08F3005908F20000300A12DE
:101FB8008A1508240A128A15750883120313C700A4
:101FC8007408C6007308C5007208C4000A128A1192
:101FD80074230A128A1583120313540884004008D4
:101FE80083138000840A41088000840A4208800024
:081FF800840A43088000080080
:102ECE0064008001840A0406031900340406682F86
:102EDE0075087404730472040319762F772F792FF3
:102EEE008030F506080010308316031788009130E5
:102EFE00831203139F00831603139F010800F6012C
:102F0E0001300A128A1547210A168A1103308312DC
:102F1E000313C3009730C200C20B932FC30B932F22
:102F2E000800831203130C1C9D2F9E2FA42FF63026
:102F3E008F003B308E00EE010C1071088A00700E6F
:102F4E008300FE0E7E0E09008316031307118312F3
:102F5E0003131708F0390C389700FF30831603134C
:102F6E009200831203131208FC39013892001215D5
:102F7E00950108008312031305138316031305131B
:102F8E001830F3005F30F200F20BCB2FF30BCB2F88
:102F9E008316031305170930F200F20BD42FD72F27
:102FAE0083160313811281150800803083120313D8
:102FBE00D7065B08C3005A08C2005908C10058085A
:102FCE00C0005708C7005608C6005508C50054086B
:102FDE00C4000A128A1174230A168A11831203136B
:102FEE004308D7004208D6004108D5004008D40057
:022FFE000800C9
:04400E00E42FFF3F5D
:00000001FF
