:060000000A128A11DA2F3A
:10000C00013400340030FC000030FB000030FA00FA
:10001C000030F90073087204710470040319172876
:10002C0018286528FD01FD0A28280130F800031066
:10003C00F00DF10DF20DF30DF80B1D280130FF0042
:10004C007F08FD07F31F2B282C281B280130F800F4
:10005C000310F90DFA0DFB0DFC0DF80B2E2873088F
:10006C007702031D432872087602031D432871088A
:10007C007502031D432870087402031C4628472888
:10008C0056287008F4027108031C710FF5027208EF
:10009C00031C720FF6027308031C730FF70279141A
:1000AC0001300310F30CF20CF10CF00CFF3E031DAD
:1000BC0057280130FD02031D642865282C287C0874
:1000CC00F3007B08F2007A08F1007908F0000800D0
:1000DC008312031327088039B1002708A8002807CA
:1000EC00B800A61F7A287B287C28381438080319F6
:1000FC00802881289128380A031D852886288E2877
:10010C000030A7000030A6000030A5000030A4008D
:10011C00A617A70199280030A7000030A6000030D0
:10012C00A5000030A40023088039FF007F08B10629
:10013C002308A8002807B900A21FA528A628A728CD
:10014C00391439080319AB28AC28BC28390A031D0B
:10015C00B028B128B9280030A3000030A20000302C
:10016C00A1000030A000A217A301C4280030A300F6
:10017C000030A2000030A1000030A00023082204AF
:10018C0021042004031DCB28CC28E5280030A7002F
:10019C000030A6000030A5000030A4008030A6047A
:1001AC007F30A7043108FF007F08A7042708A300AD
:1001BC002608A2002508A1002408A0003C2A380823
:1001CC00031DE928EA28F3280030A3000030A20020
:1001DC000030A1000030A0003C2A3808A800A9017A
:1001EC002908AB0039082802AA00031CAB032A0813
:1001FC007F3EB2002B080318013E003EB3002708D7
:10020C00B0002608AF002508AE002408AD00003071
:10021C00A7000030A6000030A5000030A40000307C
:10022C00B7000030B6000030B5000030B400B901A2
:10023C006929390803192329242944290130A800E4
:10024C000310AD0DAE0DAF0DB00DA80B262901306E
:10025C00A8000310A40DA50DA60DA70DA80B2F2902
:10026C00B71F39293A293B2924140130A80003105F
:10027C00B40DB50DB60DB70DA80B3D2923083002F2
:10028C00031D522922082F02031D522921082E0278
:10029C00031D522920082D02031C552956296529B6
:1002AC0037172008AD022108031C210FAE022208CB
:1002BC00031C220FAF022308031C230FB0020130D2
:1002CC00FF007F08B9071A303902031C6E296F2909
:1002DC001F2930082F042E042D04031976297729A1
:1002EC009629341496290130A8000310A40DA50DED
:1002FC00A60DA70DA80B7B29B71F85298629872951
:10030C0024140130A8000310B40DB50DB60DB70DB3
:10031C00A80B8929FF30B2070318B30AFF30B307C3
:10032C00A61F99299A297929B901B71F9E299F29B6
:10033C00BB29FF303405A800FF303505A900FF307C
:10034C003605AA007F303705AB002B082A04290498
:10035C0028040319B229B329B629B901B90ABB2952
:10036C00241CB929BA29BB29B32939080319BF2977
:10037C00C029F1290130A407003003180130A5076A
:10038C00003003180130A607003003180130A7070E
:10039C00271CD129D229F1292408A8002508A90055
:1003AC002608AA002708AB000130AC002B0DAB0CC3
:1003BC00AA0CA90CA80CAC0BDC292B08A7002A084A
:1003CC00A6002908A5002808A4000130B2070318CC
:1003DC00B30A0030B3073308803AFF0080307F0245
:1003EC00031DFA29FF303202031CFD29FE290C2AB9
:1003FC00FF3083120313B2000030B3000030A700AB
:10040C000030A6000030A5000030A40083120313B6
:10041C003308803AFF0080307F02031D172A013019
:10042C00320203181A2A1B2A282A83120313B20138
:10043C00B3010030A7000030A6000030A50000304A
:10044C00A400B101831203133208B800381C2F2A00
:10045C00302A322AA617362A7F30FF007F08A605DD
:10046C003808A8000310280CA700D828080083120D
:10047C0003133D088039CA003D08C2004207CC0076
:10048C00BC1F492A4A2A4B2A4C144C0803194F2AE0
:10049C00502A602A4C0A031D542A552A5D2A003022
:1004AC00BD000030BC000030BB000030BA00BC17EF
:1004BC00BD01682A0030BD000030BC000030BB001C
:1004CC000030BA0041088039CB004B084A060319AA
:1004DC00702A712A722A4A174108C2004207CB00BF
:1004EC00C01F792A7A2A7B2A4B144B0803197F2ABE
:1004FC00802A902A4B0A031D842A852A8D2A0030D3
:10050C00C1000030C0000030BF000030BE00C0177A
:10051C00C101982A0030C1000030C0000030BF007B
:10052C000030BE004C084B0203189D2A9E2AC42A98
:10053C004A1FA12AA22AA62A8030FF007F08CA06D9
:10054C004C08CD004B08CC004D08CB003A08CD0030
:10055C003E08BA004D08BE003B08CD003F08BB006A
:10056C004D08BF003C08CD004008BC004D08C00041
:10057C003D08CD004108BD004D08C100CD014B0820
:10058C00C200C3014308C5004C084202C400031C4E
:10059C00C5034508803AFF0080307F02031DD82A2E
:1005AC001A304402031CDB2ADC2A132B831203139C
:1005BC003D083C043B043A04031DE52AE72A0130BC
:1005CC00E82A0030CD000030BD000030BC00003007
:1005DC00BB000030BA004B08CC001B2B4D1CF72A7B
:1005EC00F82AFF2A4D08C2000310420C0138CD0036
:1005FC00012B0310CD0C3A1C042B052B062BCD170D
:10060C000130C2003D0DBD0CBC0CBB0CBA0CC20BB6
:10061C00082B0130FF007F08CC07831203134B0813
:10062C004C02031C1A2B1B2BF42A4A1B1E2B1F2BB0
:10063C00682B4C08031D232B242B2D2B0030BD00C5
:10064C000030BC000030BB000030BA00942C3E08D7
:10065C00BA073F0803110318013E0319362BBB07D9
:10066C00400803110318013E03193D2BBC07410838
:10067C0003110318013E0319442BBD073D1C472BE6
:10068C00482B1C2C4D1C4B2B4C2B532B4D08C200B8
:10069C000310420C0138CD00552B0310CD0C3A1C25
:1006AC00582B592B5A2BCD170130C2003D0DBD0CC8
:1006BC00BC0CBB0CBA0CC20B5C2B0130FF007F08CE
:1006CC00CC071C2C3D08803AFF004108803A7F0281
:1006DC00031D7A2B40083C02031D7A2B3F083B027A
:1006EC00031D7A2B3E083A0203187D2B7E2BD62B4A
:1006FC00FF30C200FF30C300FF30C400FF30C50024
:10070C003E08C6003F08C7004008C8004108C900A1
:10071C003A08C6023B08031C3B0F952B962BC702CD
:10072C003C08031C3C0F9B2B9C2BC8023D08031C54
:10073C003D0FA12BA22BC9024608C207470803187C
:10074C00470FA92BAA2BC30748080318480FAF2B38
:10075C00B02BC40749080318490AC5074508BD0052
:10076C004408BC004308BB004208BA008030FF00BC
:10077C007F08CA06CD09CD0A4D08031DC62BC72B11
:10078C00E42B0130BA07003003180130BB070030EE
:10079C0003180130BC07003003180130BD07E42BEF
:1007AC003E08BA023F08031C3F0FBB024008031C63
:1007BC00400FBC024108031C410FBD023D083C0424
:1007CC003B043A04031DEB2BEC2B182C4D08031D9A
:1007DC00F02BF12B182C0030BD000030BC00003089
:1007EC00BB000030BA00942C0130C2000310BA0DCB
:1007FC00BB0DBC0DBD0DC20BFC2BCD1F062C072C4D
:10080C00082C3A144D1C0B2C0C2C0F2C0314CD0D56
:10081C00112C0310CD0D4C080319152C162C182C6B
:10082C000130CC02BC1F1B2C1C2CFA2BCB01CD1F76
:10083C00202C212C2F2C4D087F390319262C272CEA
:10084C002A2CCB01CB0A2F2C3A1C2D2C2E2C2F2CE6
:10085C00272C4B080319332C342C682C0130BA0785
:10086C00003003180130BB07003003180130BC07FF
:10087C00003003180130BD073D1C452C462C682C5C
:10088C003A08C2003B08C3003C08C4003D08C50040
:10089C000130C600450DC50CC40CC30CC20CC60BF4
:1008AC00502C4508BD004408BC004308BB0042085E
:1008BC00BA004C0A0319632C642C682C0130FF001D
:1008CC007F08CC074C0A03196C2C6D2C722C4C082D
:1008DC00031D712C722C802C0030BD000030BC002C
:1008EC000030BB000030BA004C08031D7E2C7F2C5E
:1008FC00802CCA014C1C832C842C862CBC178A2C73
:10090C007F30FF007F08BC054C08C2000310420C6E
:10091C00BD00CA1F922C932C942CBD170800831277
:10092C00031323088039A8002308F9007907AE00C7
:10093C00A21FA12CA22CA32C2E142E080319A72C19
:10094C00A82CB72C2E0A031DAC2CAD2CB52C0030CA
:10095C00A3000030A2000030A1000030A000A217BC
:10096C00BF2C0030A3000030A2000030A1000030EA
:10097C00A00027088039FF007F08A8062708F90087
:10098C007907AD00A61FCB2CCC2CCD2C2D142D080B
:10099C000319D12CD22CE12C2D0A031DD62CD72CCB
:1009AC00DF2C0030A7000030A6000030A50000307E
:1009BC00A400A617E92C0030A7000030A6000030D8
:1009CC00A5000030A4002D080319ED2CEE2CF32CFF
:1009DC002E08031DF22CF32CFC2C0030A30000304D
:1009EC00A2000030A1000030A000D92F2008F00098
:1009FC0026080A128A1573200A128A1171088312AA
:100A0C000313B4007008B3003308F900FA01FB01BA
:100A1C00FC017C08AC007B08AB007A08AA007908C2
:100A2C00A9003408F900FA01FB01FC017C08B200B2
:100A3C007B08B1007A08B0007908AF002108F000FB
:100A4C0025080A128A1573200A128A11710883125A
:100A5C000313B4007008B3003308F900FA01FB016A
:100A6C00FC017908A9077A0803110318013E031940
:100A7C00402DAA077B0803110318013E0319472DCB
:100A8C00AB077C0803110318013E03194E2DAC076C
:100A9C003408F900FA01FB01FC017908AF077A0868
:100AAC0003110318013E03195C2DB0077B080311D9
:100ABC000318013E0319632DB1077C0803110318B9
:100ACC00013E03196A2DB2072208F00024080A120D
:100ADC008A1573200A128A11710883120313B40049
:100AEC007008B3003308F900FA01FB01FC01790826
:100AFC00A9077A0803110318013E0319862DAA07CA
:100B0C007B0803110318013E03198D2DAB077C08DC
:100B1C0003110318013E0319942DAC073408F90096
:100B2C00FA01FB01FC017908AF077A0803110318DD
:100B3C00013E0319A22DB0077B0803110318013ED7
:100B4C000319A92DB1077C0803110318013E0319E1
:100B5C00B02DB2070830F9000310A90DAA0DAB0D8A
:100B6C00AC0DF90BB22D2108F00024080A128A15DD
:100B7C0073200A128A11710883120313B4007008CF
:100B8C00B3003308F9003408FA00FB01FC017908C2
:100B9C00A9077A0803110318013E0319D62DAA07D9
:100BAC007B0803110318013E0319DD2DAB077C08EC
:100BBC0003110318013E0319E42DAC072008F000C3
:100BCC0025080A128A1573200A128A1171088312D9
:100BDC000313B4007008B3003308F9003408FA00AA
:100BEC00FB01FC017908A9077A0803110318013EDF
:100BFC000319012EAA077B0803110318013E0319E0
:100C0C00082EAB077C0803110318013E03190F2EA5
:100C1C00AC070830F9000310A90DAA0DAB0DAC0DF3
:100C2C00F90B112E2008F00024080A128A157320E3
:100C3C000A128A11710883120313B4007008B300EE
:100C4C003308F9003408FA00FB01FC017908A90704
:100C5C007A0803110318013E0319352EAA077B08E5
:100C6C0003110318013E03193C2EAB077C0803113A
:100C7C000318013E0319432EAC072108F000260887
:100C8C000A128A1573200A128A117108831203132F
:100C9C00B4007008B3003308F9003408FA00FB0103
:100CAC00FC017908AF077A0803110318013E0319F8
:100CBC00602EB0077B0803110318013E0319672E41
:100CCC00B1077C0803110318013E03196E2EB207FD
:100CDC002208F00025080A128A1573200A128A11BC
:100CEC00710883120313B4007008B3003308F900C1
:100CFC003408FA00FB01FC017908AF077A080311EC
:100D0C000318013E03198B2EB0077B08031103183F
:100D1C00013E0319922EB1077C0803110318013E02
:100D2C000319992EB2072208F00026080A128A1518
:100D3C0073200A128A11710883120313B40070080D
:100D4C00B3003308F9003408FA00FB01FC01083049
:100D5C000310F90DFA0DFB0DFC0DFF3E031DAE2E1D
:100D6C007908AF077A0803110318013E0319BF2E47
:100D7C00B0077B0803110318013E0319C62EB107F7
:100D8C007C0803110318013E0319CD2EB207290864
:100D9C00F9002A08FA002B08FB002C08FC0018307C
:100DAC000310FC0CFB0CFA0CF90CFF3E031DD62EA9
:100DBC007908AF077A0803110318013E0319E72ECF
:100DCC00B0077B0803110318013E0319EE2EB1077F
:100DDC007C0803110318013E0319F52EB2070830E5
:100DEC00F9000310A90DAA0DAB0DAC0DF90BF72EE4
:100DFC002E082D07F900FA01FA0D7908823EB3008E
:100E0C007A080318013EFF3EB400292F0130F90087
:100E1C000310AF0DB00DB10DB20DF90B0E2FAC1FB1
:100E2C00182F192F1A2F2F140130F9000310A90DA8
:100E3C00AA0DAB0DAC0DF90B1C2FFF30B30703182B
:100E4C00B40AFF30B407B11F2C2F2D2F0C2FAD017E
:100E5C00AC1F312F322F4E2FFF302905F900FF30F8
:100E6C002A05FA00FF302B05FB007F302C05FC0017
:100E7C007C087B047A0479040319452F462F492FEB
:100E8C00AD01AD0A4E2F2F1C4C2F4D2F4E2F462F40
:100E9C002D080319522F532F842F0130AF07003028
:100EAC0003180130B007003003180130B1070030CF
:100EBC0003180130B207321C642F652F842F2F08C2
:100ECC00F9003008FA003108FB003208FC00013050
:100EDC00FD007C0DFC0CFB0CFA0CF90CFD0B6F2FC0
:100EEC007C08B2007B08B1007A08B0007908AF002A
:100EFC000130B3070318B40A0030B4073408803A41
:100F0C00FF0080307F02031D8D2FFF303302031C46
:100F1C00902F912F9C2F7F3083120313B2008030BF
:100F2C00B1000030B0000030AF00CD2F831203139E
:100F3C003408803AFF0080307F02031DA72F013058
:100F4C0033020318AA2FAB2FB72F003083120313D1
:100F5C00B2000030B1000030B0000030AF00A8018A
:100F6C00CD2F831203133308AE00FF30AF05FF30D3
:100F7C00B0057F30B1050030B2052E1CC62FC72F2F
:100F8C00C82FB1172E08F9000310790CB2002808ED
:100F9C00FF007F08B2043208A3003108A200300819
:100FAC00A1002F08A00008000A128A1106200A12BC
:100FBC008A11EC000A128A1107200A128A11ED001C
:100FCC0083160313A001A101A201A301A401A50191
:100FDC00A601A701A801A901AA01AB01AC018312CA
:100FEC000313E701E801E901EA01EB0183010A12AD
:100FFC008A15142D10308316031788009130831234
:10100C0003139F00831603139F010800FC0101309A
:10101C000A128A159F210A128A15033083120313B0
:10102C00BD009730BC00BC0B1928BD0B192808005B
:10103C00831603130711831203131708F0390C38A6
:10104C009700FF30831603139200831203131208C8
:10105C00FC39013892001215950108008312031314
:10106C0005138316031305131830F1005F30F000DD
:10107C00F00B3E28F10B3E2883160313051709309D
:10108C00F000F00B47284A288316031381128115B0
:10109C000800803083120313D1065508BD00540894
:1010AC00BC005308BB005208BA005108C1005008DC
:1010BC00C0004F08BF004E08BE000A128A113D2224
:1010CC000A128A15831203133D08D1003C08D00084
:1010DC003B08CF003A08CE000800F800F401F501F7
:1010EC007008F200F3017208F6007308F700781C20
:1010FC008028812887287608F4070318F50A7708D2
:10110C00F50701300310F60DF70DFF3E031D88287F
:10111C000310F80C7808031D942895287D28750871
:10112C00F1007408F000080083120313BC00AE2811
:10113C007D08803EBD00BC287D08C03EBD00BC289B
:10114C007D08903EBD00BC287D08D03EBD00BC286B
:10115C003C08003A03199E28013A0319A228033AC5
:10116C000319A628013A0319AA28BC28FC013D083A
:10117C000A128A159F210A128A150800831203137A
:10118C00EB01F001831203138101D42865300102B5
:10119C00031CD128D228D4280030F328051FD728C7
:1011AC00D828CC288101E12865300102031CDF28F6
:1011BC00E028E128D228051BE428E528DA2832307B
:1011CC000102EB0D0130FF007F08F00708307002C0
:1011DC00031CF128F228C828013008007308720497
:1011EC00710470040319FB28FC283F29F901F90A42
:1011FC000C290130F8000310F00DF10DF20DF30D78
:10120C00F80B01290130FF007F08F907F31F0F29A4
:10121C001029FF2873087702031D1E297208760215
:10122C00031D1E2971087502031D1E297008740206
:10123C00031C2129222930297008F4027108031C8F
:10124C00710FF5027208031C720FF6027308031C6F
:10125C00730FF70201300310F30CF20CF10CF00CCD
:10126C00FF3E031D31290130F902031D3E293F29A0
:10127C0010297708F3007608F2007508F10074085D
:10128C00F0000800730883120313B1007208B00059
:10129C007108AF007008AE00740AFF000130A000A6
:1012AC000030A1005C290310A00DA10DFF0B5929E2
:1012BC002008A2002108A3000030A31BFF30A400CB
:1012CC00A5002E08A6002F08A7003008A80031089A
:1012DC00A9007809AA007909AB007A09AC007B094E
:1012EC00AD00AA0A0319AB0A0319AC0A0319AD0A1B
:1012FC002A08A6062B08A7062C08A8062D08A9065E
:10130C002608A2052708A3052808A4052908A50571
:10131C002208AE062308AF062408B0062508B1063D
:10132C003108F3003008F2002F08F1002E08F0000D
:10133C00080083120313BA0006083A08B2000430FE
:10134C000310B20CFF3E031DA62932080F39BB0057
:10135C003B08B200B301B401B5013508F300340801
:10136C00F2003308F1003208F0000030F7000030D2
:10137C00F6000030F5000530F4007C08B600B7012B
:10138C00B801B9013908FB003808FA003708F90030
:10139C003608F8000A128A1548210A128A157008B4
:1013AC00831203138600871487103A080F39BB0089
:1013BC003B08B200B301B401B5013508F3003408A1
:1013CC00F2003308F1003208F0000030F700003072
:1013DC00F6000030F5000530F4007C08B600B701CB
:1013EC00B801B9013908FB003808FA003708F900D0
:1013FC003608F8000A128A1548210A128A15700854
:10140C008312031386008714871008000310720DD3
:10141C00730DF9007908031D142A152A1E2A0030B1
:10142C00F3000030F2000030F1000030F000812AAF
:10143C007008F4007108F5007208F6007308F700E4
:10144C001F300310F70CF60CF50CF40CFF3E031DCB
:10145C00272A7408F800F217FF30F005FF30F10569
:10146C00FF30F2050030F3059630F902F91F3F2AE0
:10147C00402A5A2A7908803A973E0318462A472A66
:10148C00482A152A01300310F30CF20CF10CF00C65
:10149C00FF3E031D492A0130FF007F08F907031D99
:1014AC00582A592A482A712A20307902031C5F2AAB
:1014BC00602A6C2A152A0130F4000310F00DF10D8E
:1014CC00F20DF30DF40B632A0130F9027908031DB8
:1014DC00702A712A612A78080319752A762A812ABA
:1014EC00F009F109F209F309F00A0319F10A0319D9
:1014FC00F20A0319F30A0800831603130608D039FD
:10150C0086008710871183120313871186018710B9
:10151C00823083120313BF00DD30BE00BE0B942A51
:10152C00BF0B942A03308312031386008714871091
:10153C00073083120313BF007C30BE00BE0BA42AFD
:10154C00BF0BA42A00008312031387148710C73023
:10155C0083120313BE00B22ABE0BB12AB52A831222
:10156C00031387148710C73083120313BE00BE2ADF
:10157C00BE0BBD2AC12A02308312031386008714C6
:10158C008710203083120313BE00BE0BCB2A000041
:10159C00FC0128300A128A159F210A128A15203064
:1015AC0083120313BE00BE0BD92A00000A128A153F
:1015BC000C200A128A15063083120313BF002F3039
:1015CC00BE00BE0BE72ABF0BE72AEC2AFC01063053
:1015DC000A128A159F210A128A15203083120313CE
:1015EC00BE00BE0BF72A0000FC010C300A128A1553
:1015FC009F210A128A15203083120313BE00BE0BE2
:10160C00052B0000080000307005F8000030710553
:10161C00F90080307205FA007F307305FB007B08FF
:10162C007A0479047804031D1C2B1D2B252B003008
:10163C00F3000030F2000030F1000030F000003018
:10164C007405F80000307505F90080307605FA0055
:10165C007F307705FB007B087A0479047804031D3E
:10166C00382B392B412B0030F7000030F6000030BE
:10167C00F5000030F400F31F442B452B692B003090
:10168C00F8000030F9000030FA008030FB007008E0
:10169C00F8027108031C710F542B552BF9027208B8
:1016AC00031C720F5A2B5B2BFA027308031C730F6B
:1016BC00602B612BFB027B08F3007A08F20079089F
:1016CC00F1007808F000F71F6C2B6D2B912B00307C
:1016DC00F8000030F9000030FA008030FB0074088C
:1016EC00F8027508031C750F7C2B7D2BF90276080C
:1016FC00031C760F822B832BFA027708031C770FBF
:10170C00882B892BFB027B08F7007A08F6007908F6
:10171C00F5007808F4008030F3068030F70677087F
:10172C007302031DA32B76087202031DA32B7508ED
:10173C007102031DA32B740870020318A62BA72B90
:10174C00A92B0310AA2B0314080083120313CC013A
:10175C00CD01FA2B4430C2004C08C20240084207AB
:10176C00C3004308FF3E84000030F3000030F20059
:10177C000030F1000A30F0003F08F7003E08F60098
:10178C003D08F5003C08F4000A128A15F4200A12F0
:10179C008A157008303E831380000030F30000304F
:1017AC00F2000030F1000A30F000831203133F08FE
:1017BC00F7003E08F6003D08F5003C08F4000A125C
:1017CC008A1108200A128A15730883120313BF00AA
:1017DC007208BE007108BD007008BC000130CC0757
:1017EC000318CD0A0030CD074008C200C3014308DE
:1017FC004D02031D032C42084C02031C062C072C23
:10180C00B02BCC01CD01262C410803190E2C0F2C2A
:10181C001F2C4C08443E8400303083130006031DFB
:10182C00182C192C1F2C4C08443E840020308000AE
:10183C00202CC1010130CC070318CD0A0030CD0794
:10184C004008FF3EC200FF3003180030C3004308BD
:10185C004D02031D332C42084C02031C362C372C32
:10186C000A2CCC01CD014E2CFC01FC0A4C08443E48
:10187C008400831300080A128A159F210A128A1504
:10188C00013083120313CC070318CD0A0030CD07A7
:10189C004008C200C30143084D02031D572C4208E7
:1018AC004C02031C5A2C5B2C3A2C0800F8007808CC
:1018BC000319612C622C762CF31F652C662C762C6C
:1018CC007009FA007109FB007209FC007309FD0034
:1018DC00FA0A0319FB0A0319FC0A0319FD0A7E2CE8
:1018EC007308FD007208FC007108FB007008FA0018
:1018FC007308720471047004031D852C862C8F2CC4
:10190C000030F3000030F2000030F1000030F00045
:10191C00132D9630F9009F2C0130FF007F08F9073A
:10192C0001300310FD0CFC0CFB0CFA0CFF3E031DEC
:10193C00972CFE307D05031DA42CA52C922CC12CBC
:10194C000130FF007F08F9070130FA070030031857
:10195C000130FB07003003180130FC07003003187E
:10196C000130FD0701300310FD0CFC0CFB0CFA0CD4
:10197C00FF3E031DB92CFF307D05031DC62CC72C63
:10198C00A62CD32C0130F9020130F4000310FA0D0F
:10199C00FB0DFC0DFD0DF40BCC2CFC1BD62CD72C0D
:1019AC00DD2C023079020318DC2CDD2CC82C7918C4
:1019BC00E02CE12CE92CFF30FA05FF30FB057F30E1
:1019CC00FC05FF30FD050310F90C7908F400F50156
:1019DC00F601F70118300310F40DF50DF60DF70DA7
:1019EC00FF3E031DF12C7408FA047508FB047608FD
:1019FC00FC047708FD0478080319052D062D0B2D22
:101A0C00F31F092D0A2D0B2DFD177D08F3007C0803
:101A1C00F2007B08F1007A08F0000800831603132B
:101A2C000514851405158316031708108810081162
:101A3C000A128A1500200A128A150A128A151E200B
:101A4C000A128A150A128A1582220A128A150A1299
:101A5C008A1534200A128A15831603138511051270
:101A6C0085138312031385138F01DB308E00303006
:101A7C0090000130831603138C00C0308B0083124E
:101A8C000313101485110512A530CE00A9300A12CB
:101A9C008A15C7260A128A15FD0100300A128A150A
:101AAC009A200A128A15831603132808831203132B
:101ABC00D90083160313270883120313D800831647
:101ACC000313260883120313D70083160313250868
:101ADC0083120313D6000530DA000230DB000A1241
:101AEC008A15D0250A128A15FD0101300A128A15B1
:101AFC009A200A128A15831603132C0883120313D7
:101B0C00D900831603132B0883120313D8008316F2
:101B1C0003132A0883120313D7008316031329080F
:101B2C0083120313D6000530DA000230DB000A12F0
:101B3C008A15D0250A128A15831203136C036D04BF
:101B4C00031DA92DAA2DC22D0A168A11F2270A12DD
:101B5C008A15710883120313E8007008E7006808FF
:101B6C00E6006708E5006608E500E6016508E9009F
:101B7C006608EA00690895000518C52DC62D4A2D82
:101B8C00EC09ED09EC0A0319ED0A95014A2D0A122C
:101B9C008A110028831203135908F3005808F20025
:101BAC005708F1005608F0000030F7000030F6003E
:101BBC000030F5000030F4000A128A1509230A12CD
:101BCC008A15031CEA2DEB2DF42DFC01FC0A2B309D
:101BDC000A128A159F210A128A15152EFC01FC0A7D
:101BEC002D300A128A159F210A128A1583120313AB
:101BFC005908F3005808F2005708F1005608F00095
:101C0C000A168A11E7270A128A157308831203131E
:101C1C00D9007208D8007108D7007008D60083125A
:101C2C0003135908F3005808F2005708F10056083E
:101C3C00F0000A128A150C220A128A1570088312F7
:101C4C000313DD007108DE000030DE1BFF30DF0007
:101C5C00E0006008F3005F08F2005E08F1005D0828
:101C6C00F00000300A128A155C240A128A157308D7
:101C7C0083120313D1007208D0007108CF007008D2
:101C8C00CE005908D5005808D4005708D300560880
:101C9C00D2000A128A154F200A128A1583120313D6
:101CAC005108E4005008E3004F08E2004E08E10040
:101CBC006008BF005F08BE005E08BD005D08BC0088
:101CCC005B085A02C000C101C10A0A128A15AB2373
:101CDC000A128A15FC01FC0A2E300A128A159F2161
:101CEC000A128A1583120313DC01DC0AA02E413080
:101CFC00A3002030A2000030A1000030A000640836
:101D0C00A7006308A6006208A5006108A4000A12D7
:101D1C008A1195240A128A15831203132308E400EE
:101D2C002208E3002108E2002008E1000130FF0056
:101D3C007F08DC075C085B020318A52EA62E7D2EFF
:101D4C006408F3006308F2006208F1006108F00017
:101D5C000A128A150C220A128A15700883120313B0
:101D6C00BC007108BD000030BD1BFF30BE00BF00C1
:101D7C005B08C000C1010A128A15AB230A128A152E
:101D8C00080083120313D7000513831603130513DE
:101D9C00183083120313D0005E30CF00CF0BD42E3B
:101DAC00D00BD42E000083160313051783120313D4
:101DBC008101E72E65300102031CE52EE62EE72E8D
:101DCC00FF2F051BEA2EEB2EE02E8101F42E653041
:101DDC000102031CF22EF32EF42EFF2F051FF72EFB
:101DEC00F82EED2E8101012F65300102031CFF2E10
:101DFC00002F012FFF2F051B042F052FFA2ED801C2
:101E0C000A128A15C4200A128A15003A031D0F2FD4
:101E1C00102F112FFF2F831203135808A03E84009C
:101E2C006B08831380000130FF007F08D807053052
:101E3C005802031C222F232F062F4130A3002030E1
:101E4C00A2000030A1000030A0008316031321086B
:101E5C0083120313CF00D001D101D2015208F30039
:101E6C005108F2005008F1004F08F00000300A123F
:101E7C008A155C240A128A15730883120313A700AF
:101E8C007208A6007108A5007008A4000A128A1135
:101E9C006E200A128A15831203132308BD00220830
:101EAC00BC002108BB002008BA00831603132008CD
:101EBC0083120313D300D401D501D6015608F300C5
:101ECC005508F2005408F1005308F00000300A12D3
:101EDC008A155C240A128A15730883120313C10035
:101EEC007208C0007108BF007008BE000A128A1187
:101EFC003D220A128A1583120313570884003A08EC
:101F0C0083138000840A3B088000840A3C0880000C
:101F1C00840A3D0880004130A3002030A20000302C
:101F2C00A1000030A00083160313230883120313AF
:101F3C00CF00D001D101D2015208F3005108F200B8
:101F4C005008F1004F08F00000300A128A155C248A
:101F5C000A128A15730883120313A7007208A600CD
:101F6C007108A5007008A4000A128A116E200A12CA
:101F7C008A15831203132308BD002208BC00210814
:101F8C00BB002008BA008316031322088312031324
:101F9C00D300D401D501D6015608F3005508F20040
:101FAC005408F1005308F00000300A128A155C2422
:101FBC000A128A15730883120313C1007208C00039
:101FCC007108BF007008BE000A128A113D220A1265
:101FDC008A15831203134E0884003A088313800079
:101FEC00840A3B088000840A3C088000840A3D086F
:041FFC008000080059
:102FCE0073087204710470040319EE2FEF2FF12FA2
:102FDE008030F3060800831203139F149F18F82FF6
:102FEE00F92FF52F1E08F100831603131E08F000AB
:022FFE000800C9
:04400E00E42FFF3F5D
:00000001FF
